:100000000C94FC000C9419010C9419010C94190126
:100010000C9419010C9400020C9419010C94190110
:100020000C9419010C9419010C9419010C941901E8
:100030000C9419010C9419010C9419010C941901D8
:100040000C94D40F0C9419010C9419010C941901FF
:100050000C94E60E0C94A40E0C9419010C94190146
:100060000C94B1070C9419010C9419010C9419010A
:100070000C9419010C9419010C941901CE028102FF
:1000800081028102CE02A102A102C1022C042F042E
:100090002F042F042C04330433043704020A0C0AFF
:1000A000160A200A860A2A0A340A3E0A480A5072A8
:1000B000657373206120627574746F6E20746F2095
:1000C000737461727420616761696E0047414D45C8
:1000D000204F5645520043535345323031302F376D
:1000E0003230312070726F6A656374206279204DFE
:1000F000696E6A6165204C65652034353336333866
:1001000030390046726F6767657200760173016F60
:10011000016B01670163015F015B0157015301E559
:1001200001E101DD01D901D501D101CD01C901C62E
:1001300001C201BE01BA01B501B101AD01A901A41D
:1001400001A0019C01970193018E01890184017F27
:10015000017A016492927D6C92926D809EA0C17C26
:1001600092924DE4A2A29D182848FF4492926D46B7
:100170008A926342FE037C92A27D868A92A2C3E0A9
:10018000100E10E1C6281028C7FC021C02FDF8045E
:100190000204F9FC0202FD8080FE80816492924D8F
:1001A000FE9098677C828A7C03FE9090617C8282BC
:1001B0007DFE2010FFFE403040FFFE020203FE10D5
:1001C00028C7040202FD82FE83FE1010FF7C82928B
:1001D0005DFE909081FE929283FE82827D7C82827F
:1001E00045FE92926D7E90907F1B5B324A001B5BB6
:1001F00025643B256448000011241FBECFEFD8E0E2
:10020000DEBFCDBF11E0A0E0B1E0E2ECF8E202C059
:1002100005900D92A836B107D9F722E0A8E6B1E023
:1002200001C01D92AC3BB207E1F70E94FE0C0C949A
:100230005F140C9400009FB7F894E8E6F0E080812A
:1002400082608083D99AECE6F0E080818F608083C1
:1002500010926C01109268011092690110926A016B
:1002600010926B0199230CF47894089580916C019D
:1002700018163CF580916D016FB7F89490916C0160
:100280009230B4F021E030E091E0F901E359FE4F03
:100290004081F901E459FE4F40839F5F292F30E0F0
:1002A00040916C01042E000C550B241735076CF39C
:1002B00090916C01915090936C0166231CF478949A
:1002C00008958FEF08950F931F93CF93DF9380913D
:1002D000680190916901A0916A01B0916B01892B2D
:1002E0008A2B8B2B09F486C0DFB7D078F894C3B182
:1002F000CF700E94990F00916801109169012091BF
:100300006A0130916B01061717072807390708F0B3
:100310005EC080917101C8135AC0C13091F40E942F
:10032000990FDC01CB018A569F4FAF4FBF4F80938F
:10033000680190936901A0936A01B0936B0180E01A
:1003400055C0C23091F40E94990FDC01CB018A564E
:100350009F4FAF4FBF4F8093680190936901A09367
:100360006A01B0936B0181E041C0C43091F40E94F6
:10037000990FDC01CB018A569F4FAF4FBF4F80933F
:10038000680190936901A0936A01B0936B0182E0C8
:100390002DC0C83091F40E94990FDC01CB018A5620
:1003A0009F4FAF4FBF4F8093680190936901A09317
:1003B0006A01B0936B0183E019C01092680110923A
:1003C000690110926A0110926B018FEF0FC080914A
:1003D0007101C81751F010926801109269011092D2
:1003E0006A0110926B018FEF01C08FEFDD2319F0CE
:1003F000789401C08FEFDF91CF911F910F910895F5
:100400001F920F920FB60F921124EF92FF921F933B
:100410002F933F934F935F936F937F938F939F930C
:10042000AF93BF93CF93DF93EF93FF9313B11F70FD
:10043000C0E0D0E0E12EF12C80916C01843084F595
:10044000C7010C2E02C0959587950A94E2F780FFAC
:1004500027C08091710190E00C2E02C09595879580
:100460000A94E2F780FD1CC0E0916C0181E08E0FE0
:1004700080936C010E2E000CFF0BE359FE4FC083DE
:100480000E94990FDC01CB01845D9E4FAF4FBF4F9F
:100490008093680190936901A0936A01B0936B0106
:1004A0002196C430D10541F610937101FF91EF916F
:1004B000DF91CF91BF91AF919F918F917F916F917C
:1004C0005F914F913F912F911F91FF90EF900F906F
:1004D0000FBE0F901F9018950F93262F603108F0D4
:1004E0005BC0482F082E000C550B660B770B48306D
:1004F000510528F4FA01E25CFF4F0C94BC1081E036
:100500004EC08150E82FF0E0DF01A858BE4F0C919B
:10051000020F013408F00054EE0FFF1FEE0FFF1F13
:10052000EE0FFF1FE45EFE4F208131814281538137
:1005300064817581868197810E94D310822F81709A
:100540002EC0855090E0FC01EA58FE4F6081260FD6
:10055000213208F02052880F991F880F991FFC0143
:10056000EC5EFE4F80819181A281B38104C0B6957B
:10057000A795979587952A95D2F721E082278170D4
:100580000EC0809172019091730102C0969587957B
:100590002A95E2F7817003C081E001C080E00F91ED
:1005A0000895CF93DF93CDB7DEB760970FB6F89479
:1005B000DEBF0FBECDBFFE0131969E012F5E3F4FC5
:1005C00091E19193E217F307E1F7BE016F5F7F4F6F
:1005D0000E94190860960FB6F894DEBF0FBECDBF1B
:1005E000DF91CF9108953F924F925F926F927F92E9
:1005F0008F929F92AF92BF92CF92DF92EF92FF9233
:100600000F931F93CF93DF93CDB7DEB760970FB6ED
:10061000F894DEBF0FBECDBF482E282F30E0F90181
:10062000E858FE4FE081C901880F991F880F991F74
:10063000880F991F845E9E4FDC015C9011966C9030
:10064000119712967C90129713968C90139714968C
:100650009C90149715961C91159716963C9016979A
:100660001796FC91CE0101967C016E0191E1C90EB5
:10067000D11CD901A050BF4F5D01252D362D472D2E
:10068000582D692D712F832D9F2F0E2F0E94D3106F
:10069000217030E040E050E060E070E080E090E009
:1006A000A0E00E94EF1029F0D5018C91D7018C9326
:1006B00002C0D7011C92EF5FE03408F0E0E0BFEF2A
:1006C000EB1AFB0AEC14FD04C1F6BE016F5F7F4F0D
:1006D00081E0840D0E94190860960FB6F894DEBF81
:1006E0000FBECDBFDF91CF911F910F91FF90EF9083
:1006F000DF90CF90BF90AF909F908F907F906F9042
:100700005F904F903F900895CF92DF92EF92FF92CB
:10071000CF93DF93CDB7DEB760970FB6F894DEBF07
:100720000FBECDBF282F30E0F901EA58FE4F90816F
:10073000220F331F220F331FF901EC5EFE4FC080E2
:10074000D180E280F380FE0131969E012F5E3F4F03
:10075000ACE3B701A601092E04C0769567955795BD
:1007600047950A94D2F740FF02C0A08301C01082CF
:100770009F5F903208F090E03196E217F30749F757
:10078000BE016F5F7F4F8B5F0E94190860960FB6A6
:10079000F894DEBF0FBECDBFDF91CF91FF90EF90F9
:1007A000DF90CF900895EF92FF920F931F93CF9316
:1007B000DF93CDB7DEB760970FB6F894DEBF0FBEFC
:1007C000CDBFA0917401B0917501E0907201F090DD
:1007D0007301AE014F5F5F4FBE016F5E7F4FFA0145
:1007E00000EF11E1CF01841B950B9D01082E02C083
:1007F000369527950A94E2F720FF02C010830BC0BC
:10080000970102C0369527958A95E2F720FF02C02E
:10081000008301C010823196E617F70719F7BE0171
:100820006F5F7F4F87E00E94190860960FB6F894BB
:10083000DEBF0FBECDBFDF91CF911F910F91FF9013
:10084000EF900895482F50E04830510590F4FA0198
:10085000EA5BFF4F0C94BC100E94D10208958150B6
:100860000E94F302089585500E94840308950E9417
:10087000D303089580917B01882341F045E3609183
:100880007D0180917C010E94FA07089540EF6091FC
:100890007D0180917C010E94FA07089510927D01EC
:1008A00087E080937C0110927B010E943A040895B6
:1008B000E8E7F1E0128211821082E6E7F1E01182AE
:1008C00010828DED9DED909375018093740190934E
:1008D0007301809372010E945A0880E00E94D10245
:1008E00084E00E94D10280E00E94F30281E00E9435
:1008F000F30282E00E94F30280E00E94840381E020
:100900000E9484030E94D3030E944E0408958091A4
:100910007D018730B9F10E94220480917D016091B0
:100920007C018F5F0E946C0280937B01811104C067
:1009300081E090E00E940C0D80917D018F5F80939B
:100940007D010E943A0480917B0181111BC080913E
:100950007D018730B9F481E090E000907C0102C015
:10096000880F991F0A94E2F7209172013091730168
:10097000822B932B90937301809372018AE090E015
:100980000E940C0D089580917D01873009F443C0C9
:1009900090917C01992309F442C00E942204609145
:1009A0007C01615080917D018F5F0E946C02809379
:1009B0007B01811104C081E090E00E940C0D8091C8
:1009C0007D018F5F80937D0180917C0181508093B8
:1009D0007C010E943A0480917B01811122C08091A8
:1009E0007D018730F1F481E090E000907C0102C04D
:1009F000880F991F0A94E2F72091720130917301D8
:100A0000822B932B90937301809372018AE090E084
:100A10000E940C0D089580917C01811102C00E94FA
:100A20008704089580917D01873009F443C0909137
:100A30007C019F3009F442C00E94220460917C0135
:100A40006F5F80917D018F5F0E946C0280937B01BC
:100A5000811104C081E090E00E940C0D80917D0125
:100A60008F5F80937D0180917C018F5F80937C01FB
:100A70000E943A0480917B01811122C080917D0106
:100A80008730F1F481E090E000907C0102C0880F93
:100A9000991F0A94E2F72091720130917301822B21
:100AA000932B90937301809372018AE090E00E94EF
:100AB0000C0D089580917C018F3011F40E94870401
:100AC0000895CF9380917D01882381F00E942204B4
:100AD000C0917D01C15060917C018C2F0E946C02FD
:100AE00080937B01C0937D010E943A04CF910895C9
:100AF000CF9380917C01882391F080917D010E94A9
:100B00002204C0917C01C1506C2F80917D010E9414
:100B10006C0280937B01C0937C010E943A04CF91C8
:100B20000895CF93DF9380917D018823F9F0909110
:100B30007C019923A9F00E942204C0917C01C1503C
:100B4000D0917D01D1506C2F8D2F0E946C0280932B
:100B50007B01D0937D01C0937C010E943A040BC0BD
:100B60000E94610508C00E94780505C080917C0143
:100B70008111F9CFF5CFDF91CF910895CF93809177
:100B80007C018F3091F080917D010E942204C09100
:100B90007C01CF5F6C2F80917D010E946C0280935D
:100BA0007B01C0937C010E943A04CF910895CF93BA
:100BB000DF9380917D018823F9F090917C019F3033
:100BC000A9F00E942204C0917C01CF5FD0917D01E9
:100BD000D1506C2F8D2F0E946C0280937B01D0939B
:100BE0007D01C0937C010E943A040BC00E94610504
:100BF00008C00E94BE0505C080917C018F30C9F7F6
:100C0000F5CFDF91CF91089580917D010895809176
:100C10007C01089581E020917201309173012F3F92
:100C20003F4F09F080E0089581E090917D01973079
:100C300009F080E0089580917B01089581E0809320
:100C40007B0108950F931F93CF93DF93C0917D0194
:100C50000C2E000CDD0B282F30E089010F5F1F4F99
:100C6000F901E858FE4F9081961B32F4F901E858DB
:100C7000FE4F9FE390830BC090342CF4F901E858A9
:100C8000FE4F908304C0F901E858FE4F10820E9485
:100C9000F302C017D10751F460917C0180917D016E
:100CA0000E946C0280937B010E943A04DF91CF91F5
:100CB0001F910F9108950F931F93CF93DF93C091CE
:100CC0007D010C2E000CDD0B282F30E089010B5F1D
:100CD0001F4FC017D107C9F4613041F490917C01D6
:100CE0009F3071F491E090937B010FC06F3F41F40E
:100CF00090917C01911104C091E090937B0105C01B
:100D000090917C01960F90937C01F901EA58FE4F77
:100D10009081961B32F4F901EA58FE4F9FE19083CF
:100D20000BC090322CF4F901EA58FE4F908304C0B6
:100D3000F901EA58FE4F10820E948403C017D107C0
:100D400011F40E943A04DF91CF911F910F91089501
:100D50002FB7F89486E480937C008EE880937A0025
:100D600080E092E0909382018093810190938001D2
:100D700080937F011092880184E080938701109214
:100D80008301109284011092850110928601809354
:100D90007E0122230CF47894EAE7F0E080818064FD
:100DA0008083089580917E01089580917F019091C4
:100DB0008001813D914008F450C080918101909163
:100DC0008201843E914040F480917F0190918001A6
:100DD000843E914008F443C080918101909182014A
:100DE0008332924038F080917F0190918001843E5F
:100DF0009140B8F180917F019091800186339240BB
:100E000090F58091810190918201843E914038F467
:100E100080917F01909180018332924030F58091E2
:100E20008101909182018332924038F080917F015C
:100E30009091800183329240D0F480918101909111
:100E40008201813D9140A8F08091810190918201C1
:100E50008633924080F484E0089581E0089580E034
:100E6000089582E0089587E0089586E0089588E077
:100E7000089583E0089585E00895CF92DF92EF9280
:100E8000FF920F931F93CF93DF93CFB7C078F8945F
:100E900084E080937E010E94D506D82F8091830143
:100EA00090918401A0918501B0918601892B8A2BB4
:100EB0008B2B89F10E94990FC0908301D0908401FF
:100EC000E0908501F09086019701860108531F4F3D
:100ED0002F4F3F4F0617170728073907C0F4D430A4
:100EE00049F41092830110928401109285011092AE
:100EF000860123C0D0937E010E94990F60938301E5
:100F000070938401809385019093860116C0CD284B
:100F1000CE28CF2891F480918701843071F4D430A9
:100F200061F0D0937E010E94990F609383017093CA
:100F300084018093850190938601D0938701CC230F
:100F400009F0789481E090917E01943009F480E07A
:100F5000DF91CF911F910F91FF90EF90DF90CF9095
:100F600008951F920F920FB60F9211242F933F9363
:100F70008F939F93EF93FF932091780030917900A6
:100F800080918801811105C03093820120938101F5
:100F900008C080E094E0821B930B909380018093C3
:100FA0007F019091880181E0891B80938801809165
:100FB0008801811106C0ECE7F0E080818E7F80839C
:100FC00005C0ECE7F0E0808181608083EAE7F0E033
:100FD000808180648083FF91EF919F918F913F91F9
:100FE0002F910F900FBE0F901F90189580E80E94D0
:100FF000390F08951F93CF93DF938031B0F4683099
:10100000A0F4142FC62FD82F81E00E94610F6C2FFF
:10101000677080E1689F900111248D2F8F70822B63
:101020000E94610F812F0E94610FDF91CF911F916C
:1010300008950F931F93CF93DF93883090F48B0123
:10104000C82F82E00E94610F8C2F87700E94610F71
:10105000E801005F1F4F89910E94610FC017D107FF
:10106000D1F7DF91CF911F910F9108950F931F93A7
:10107000CF93DF93803190F48B01C82F83E00E94DF
:10108000610F8C2F8F700E94610FE801085F1F4F66
:1010900089910E94610FC017D107D1F7DF91CF91DD
:1010A0001F910F91089584E00E94610F82E00E94D9
:1010B000610F08958FE00E94610F08950E94F60766
:1010C0000E941B0140E060E07BE480E090E00E9431
:1010D000510E8FEF87B981E08AB90E94810F0E947B
:1010E000A806789408950E94780F6AE070E08AE07C
:1010F00090E00E94670F83E091E09F938F930E949E
:1011000071116CE070E08AE090E00E94670F86ED5C
:1011100090E09F938F930E9471110E945A088FE074
:1011200081B981B182B90E94090D0F900F900F9083
:101130000F9060EF84E391E00E941A0D0DC02FE73D
:1011400089EA93E0215080409040E1F700C0000020
:101150000E9436018F3F29F40E94290D8111EFCFA3
:10116000E8CF08950E9458040E94780F0E94AE0FA5
:1011700064E170E08AE090E00E94670F83E591E00F
:101180009F938F930E945B1164E170E084E190E093
:101190000E94670F0E94120D6093A0017093A1013D
:1011A0007F936F9389E591E09F938F930E945B11EA
:1011B00081B182B90E94A70F0E9436010E949F0E42
:1011C0000F900F900F900F900F900F9008952F9207
:1011D0003F924F925F926F927F928F929F92AF92C7
:1011E000BF92CF92DF92EF92FF920F931F93CF9314
:1011F000DF93CDB7DEB769970FB6F894DEBF0FBEA9
:10120000CDBF0E94990F6D877E878F87988B0E9434
:10121000990F698B7A8B8B8B9C8B0E94990F6D8BAE
:101220007E8B8F8B988F0E94990F2B013C010E941F
:10123000990F4B015C0184E10E94B90F10E0C0C21C
:101240000E94CB0F8823B1F00E941E060E94040664
:1012500089830E94070645E369810E94FA072FEF00
:1012600039E648E1215030404040E1F700C000003D
:101270000E94C60F0E941B06811109C00E9414061D
:10128000882329F00E944E0484E10E94B90F0E9435
:10129000360189838F3F09F029C30E94980E882365
:1012A00009F49FC0A6EBB2E08D919C910E941D11A4
:1012B000111105C08B3109F415C39FEF0BC011301C
:1012C00029F48B3509F410C39FEF04C0123029F4C0
:1012D000982F8FEF943411F408C09FEF282F2F7DA3
:1012E0002C3409F00DC310E001C010E08091890199
:1012F00090918A01892B09F0FEC20E94780506C1EF
:101300008F7D8535A1F501C010E080918901909114
:101310008A01892B09F0EFC20E9487040E94780F8E
:1013200064E170E08AE090E00E94670FE3E5F1E09D
:10133000FF93EF930E945B1164E170E084E190E021
:101340000E94670F0E94120D6093A0017093A1018B
:101350007F936F9349E551E05F934F930E945B1138
:101360000F900F900F900F900F900F90CFC0A9810A
:10137000A13021F0923411F0843451F4809189012C
:1013800090918A01892B09F0B6C20E946105BEC006
:10139000B981BB2321F0933411F0823551F480914F
:1013A000890190918A01892B09F0A5C20E94BE058E
:1013B000ADC08035B1F48091890190918A0181306E
:1013C000910529F410928A0110928901A6C0892BF7
:1013D00009F0F6C1E1E0F0E0F0938A01E0938901C1
:1013E00048C10E943D07882309F45CC00E94D206D0
:1013F00090E08930910508F089C0FC01E25BFF4F65
:101400000C94BC108091890190918A01892B09F07C
:1014100072C20E94C3047AC08091890190918A01AE
:10142000892B09F068C20E94870470C080918901ED
:1014300090918A01892B09F05EC20E94120566C054
:101440008091890190918A01892B09F054C20E94F0
:1014500078055CC08091890190918A01892B09F0FF
:101460004AC20E94BE0552C08091890190918A01B2
:10147000892B09F040C20E94910548C080918901E2
:1014800090918A01892B09F036C20E9461053EC005
:101490008091890190918A01892B09F02CC20E94C8
:1014A000D70534C00E946301813099F01CF4882371
:1014B00031F02CC08230B9F08330F9F027C0809130
:1014C000890190918A01892B09F015C20E94BE05FD
:1014D0001DC08091890190918A01892B09F00BC26E
:1014E0000E94610513C08091890190918A01892B26
:1014F00009F001C20E94870409C08091890190917E
:101500008A01892B09F0F7C10E9478058091890131
:1015100090918A01009709F0A9C00E94A70F0E942C
:10152000990F6B017C010E94990F69837A838B83E9
:101530009C830E94990F6D837E838F8398870E947E
:10154000990F362E072F8987998F0E94990F262E83
:101550007A878B879C870E941B06811115C08D8519
:101560009E85AF85B88988519C4FAF4FBF4FC81635
:10157000D906EA06FB0640F061E080E00E94220600
:10158000CD86DE86EF86F88A0E941B0681111DC07B
:1015900089899A89AB89BC898C5E9A4FAF4FBF4FBE
:1015A00029813A814B815C81281739074A075B07FB
:1015B00060F06FEF81E00E94220689819A81AB8101
:1015C000BC81898B9A8BAB8BBC8B0E941B068111D3
:1015D0001DC08D899E89AF89B88D82519D4FAF4FB7
:1015E000BF4F2D813E814F815885281739074A0703
:1015F0005B0760F061E082E00E9422068D819E819F
:10160000AF81B8858D8B9E8BAF8BB88F0E941B06E8
:10161000811113C0D301C20186589C4FAF4FBF4FF9
:10162000C816D906EA06FB0640F06FEF80E00E947C
:101630005B06432C502E6984798C0E941B06811115
:10164000BFC0D501C401845B9B4FAF4FBF4FC816CD
:10165000D906EA06FB0608F4B3C061E081E00E9407
:101660005B06822C9A84AB84BC84AAC0019709F0E3
:10167000A7C00E94AB0F0E94990F6B017C010E94D2
:10168000990F69837A838B839C830E94990F6D8362
:101690007E838F8398870E94990F062F7987898F81
:1016A000392E0E94990F262E7A878B879C870E945D
:1016B0001B06811115C08D859E85AF85B88988511F
:1016C0009C4FAF4FBF4FC816D906EA06FB0640F045
:1016D00060E080E00E942206CD86DE86EF86F88AF2
:1016E0000E941B0681111DC089899A89AB89BC891A
:1016F0008C5E9A4FAF4FBF4F29813A814B815C81FD
:10170000281739074A075B0760F060E081E00E9414
:10171000220689819A81AB81BC81898B9A8BAB8BA4
:10172000BC8B0E941B0681111DC08D899E89AF89CB
:10173000B88D82519D4FAF4FBF4F2D813E814F815C
:101740005885281739074A075B0760F060E082E098
:101750000E9422068D819E81AF81B8858D8B9E8BE4
:10176000AF8BB88F0E941B06811113C0D301C20139
:1017700086589C4FAF4FBF4FC816D906EA06FB06E6
:1017800040F060E080E00E945B06402E5984698C46
:10179000732C0E941B06811113C0D501C401845B08
:1017A0009B4FAF4FBF4FC816D906EA06FB0640F065
:1017B00060E081E00E945B06822C9A84AB84BC844A
:1017C0000E941B06811105C00E940A06882309F4A5
:1017D00037CD8091030190910401892B09F49CC0BD
:1017E0000E940A06811140C00E94AB0F64E170E0C4
:1017F0008AE090E00E94670F83E591E09F938F93CA
:101800000E945B1164E170E084E190E00E94670F48
:101810000E94120D6093A0017093A1017F936F93BA
:1018200089E591E09F938F930E945B118091030162
:1018300090910401019790930401809303019FEF1D
:10184000A9E6B8E19150A040B040E1F700C0000027
:1018500081B1869581B981B182B90F900F900F90B7
:101860000F900F900F9058C0809103019091040148
:10187000892B09F451C00E940A06882309F44CC040
:10188000EFEFF9E628E1E150F0402040E1F700C039
:10189000000064E170E08AE090E00E94670F83E559
:1018A00091E09F938F930E945B1164E170E084E16B
:1018B00090E00E94670F0E94120D6093A001709348
:1018C000A1017F936F9389E591E09F938F930E948D
:1018D0005B110E944E040F900F900F900F900F908D
:1018E0000F901AC011E07DCD12E07BCD39813330ED
:1018F00009F4FCCC0AC08091890190918A01B6CE8E
:10190000913409F401CD10E0FBCC4981423009F457
:10191000FCCC9FEF81E0F4CC69960FB6F894DEBF63
:101920000FBECDBFDF91CF911F910F91FF90EF9030
:10193000DF90CF90BF90AF909F908F907F906F90EF
:101940005F904F903F902F90089580910301909168
:101950000401892B09F051C00E94AB0F12B86EE050
:1019600070E08AE090E00E94670F8CEC90E09F931B
:101970008F930E9471116FE070E08AE090E00E9406
:10198000670F8EEA90E09F938F930E94711164E13C
:1019900070E08AE090E00E94670F83E591E09F93FA
:1019A0008F930E945B1164E170E084E190E00E94FB
:1019B000670F0E94120D6093A0017093A1017F93A5
:1019C0006F9389E591E09F938F930E945B1184E070
:1019D00090E090930401809303018FE081B90E940D
:1019E000090D8DB79EB70A960FB6F8949EBF0FBE2D
:1019F0008DBF0E9436018F3FE1F308950E945E087B
:101A00000E9473080E94B2080E94E7080E94A50C79
:101A1000F9CF1092A00108959091A001890F8093B1
:101A2000A00108956091A001062E000C770B880B91
:101A3000990B08956093050190938F0180938E0117
:101A4000109291011092900110928D0110928C01D0
:101A500008950F931F93CF93DF93CDB7DEB72897E9
:101A60000FB6F894DEBF0FBECDBFE0919001F091AC
:101A70009101309781F0149110FF06C010929101EE
:101A80001092900100E06BC03196F0939101E093C9
:101A9000900100E064C0E0918C01F0918D013097DD
:101AA00009F449C0CF01019690938D0180938C0178
:101AB000E081E1110AC010928D0110928C0180E149
:101AC00080938B0100E010E04AC08FE98E0F8A31CD
:101AD00070F4F0E0EE0FFF1FE35AFF4F85919491F1
:101AE000909391018093900100E010E038C08FEB5B
:101AF0008E0F8A3170F4F0E0EE0FFF1FE356FF4FB8
:101B000085919491909391018093900100E010E071
:101B100026C080ED8E0F8A3000F5F0E0EE0FFF1F3B
:101B2000E555FF4F85919491909391018093900199
:101B300000E010E014C080918E0190918F0101E0CF
:101B4000009709F000E090938D0180938C01109232
:101B50008F0110928E0110E002C000E010E00E94A0
:101B6000530820910501FE013896CE0101961123FC
:101B700014F4208301C01082110F3197E817F90780
:101B8000B1F71982BE016F5F7F4F8FE00E94360868
:101B900080918B01882389F0815080938B010023F1
:101BA00011F0882311F090E003C091E001C091E0B2
:101BB00081E0992329F080E003C00023A1F3F7CF4F
:101BC00028960FB6F894DEBF0FBECDBFDF91CF9140
:101BD0001F910F910895CF93C82F8A3019F48DE08B
:101BE0000E94EB0D9FB7907802C0992329F1809154
:101BF000A3018F3FD1F3F894E091A20181E08E0F11
:101C00008093A201F0E0EC55FE4FC0838091A301C8
:101C10008F5F8093A3018091A2018F3F11F41092F6
:101C2000A201E1ECF0E0808180628083992339F0A9
:101C3000789480E090E005C081E090E002C080E010
:101C400090E0CF9108958091B5028823E1F32FB7FA
:101C50002078F8948091A3023091B50290E0831B24
:101C600091095AF4E091A3028091B502F0E0E81BDB
:101C7000F109EC54FD4F80810AC0E091A3028091EC
:101C8000B502F0E0E81BF109EC55FD4F8081909121
:101C9000B50291509093B502222309F0789490E018
:101CA00008951092A2011092A3011092A302109223
:101CB000B5021092B40240939201DC01CB01880F6F
:101CC000991FAA1FBB1F880F991FAA1FBB1F9C012A
:101CD000AD01220F331F441F551F60E072E18AE7F8
:101CE00090E00E949D10BA01A9014F5F5F4F6F4FB6
:101CF0007F4FDB01CA011AF40196A11DB11DB595F4
:101D0000A7959795879501979093C5008093C400F8
:101D1000E1ECF0E088E18083808180688083E6EBFD
:101D2000F2E086E091E0938382839183808308953B
:101D30009091B50281E0911101C080E00895109268
:101D4000A3021092B50208951F920F920FB60F9240
:101D500011242F938F939F93EF93FF938091A3016F
:101D6000882329F18091A2012091A30190E0821B98
:101D700091095AF4E091A2018091A301F0E0E81BDF
:101D8000F109ED55FD4F90810AC0E091A2018091CB
:101D9000A301F0E0E81BF109EC55FE4F9081809122
:101DA000A30181508093A3019093C60005C0E1EC8C
:101DB000F0E080818F7D8083FF91EF919F918F91E3
:101DC0002F910F900FBE0F901F9018951F920F929A
:101DD0000FB60F9211242F933F934F935F936F93FE
:101DE0007F938F939F93AF93BF93CF93EF93FF9383
:101DF000C091C60080919201882349F08091A3018F
:101E00008F3F29F060E070E08C2F0E94EB0D8091F5
:101E1000B502803120F081E08093B40218C0CD304B
:101E200009F4CAE0E091A30281E08E0F8093A3023F
:101E3000F0E0EC55FD4FC0838091B5028F5F809339
:101E4000B5028091A302803111F41092A302FF9198
:101E5000EF91CF91BF91AF919F918F917F916F91B2
:101E60005F914F913F912F910F900FBE0F901F9058
:101E7000189594B1906B94B92C9A90E59CBD8830DC
:101E800021F0803211F0823019F491E09DBD01C043
:101E90001DBC803269F028F4883071F0803161F027
:101EA0000EC0803429F0803851F48CB581608CBD2F
:101EB0008CB582608CBD03C08CB581608CBD2C98C4
:101EC00008958EBD0DB407FEFDCF8EB508959F9386
:101ED0008F937F936F938EEE91E09F938F930E94E9
:101EE00071110F900F900F900F900F900F90089519
:101EF00089EE91E09F938F930E9471110F900F9044
:101F0000089510929C0110929D0110929E011092D2
:101F10009F0116BC8CE787BD82E084BD83E085BD50
:101F2000EEE6F0E080818260808385B3827085BBBD
:101F300008952FB7F89460919C0170919D01809154
:101F40009E0190919F0122230CF47894089581E0E2
:101F50008093970108951092970108958FEF87B9A4
:101F6000579A87E080939401109296011092950100
:101F7000089528EE33E0482F429FC001439F900D03
:101F800011249093960180939501089510929601E3
:101F9000109295010895209195013091960181E06C
:101FA000232B09F080E008951F920F920FB60F9235
:101FB00011242F933F934F935F936F937F938F934E
:101FC0009F93AF93BF93EF93FF9380919C01909168
:101FD0009D01A0919E01B0919F010196A11DB11D8F
:101FE00080939C0190939D01A0939E01B0939F01CB
:101FF00080919701882311F1809198019091990126
:10200000A0919A01B0919B010196A11DB11D8093F1
:10201000980190939901A0939A01B0939B018091AC
:10202000950190919601892B49F0809195019091AD
:102030009601019790939601809395018091930169
:102040008F5F8093930180919301843010F0109200
:10205000930180919301869520919501309196018D
:10206000232B09F453C020919501309196012851FA
:102070003C4F81112FC0369527953695279536957B
:102080002795A5ECB0E20E94C210AC015295429592
:102090004F7045275F7045279A01ADECBCEC0E945C
:1020A000C2109695879596958795969587959C01EC
:1020B000220F331F880F991F880F991F880F991FB0
:1020C000820F931F481B590BFA01E35AFE4F808180
:1020D00088B921C0213187E23807B0F032952295C6
:1020E0002F7023273F702327A7E4B3E00E94C2107C
:1020F000969587959695879596958795FC01E35AD1
:10210000FE4F808188B905C018B803C018B888236D
:1021100011F05F9A01C05F98FF91EF91BF91AF916D
:102120009F918F917F916F915F914F913F912F91EF
:102130000F900FBE0F901F901895052E97FB1EF461
:1021400000940E94B41057FD07D00E94FB1007FCBA
:1021500003D04EF40C94B4105095409530952195D1
:102160003F4F4F4F5F4F08959095809570956195C3
:102170007F4F8F4F9F4F0895EE0FFF1F0590F491F3
:10218000E02D0994A29FB001B39FC001A39F700DE1
:10219000811D1124911DB29F700D811D1124911D6F
:1021A000089597FB10F8169400080F93083098F0E4
:1021B0000850232F342F452F562F672F782F892F24
:1021C000902DF4CF059497958795779567955795BA
:1021D0004795379527950A95AAF70F9108950024FA
:1021E000A7FD00942A1730054005500560057005CD
:1021F000800590050895A1E21A2EAA1BBB1BFD01C4
:102200000DC0AA1FBB1FEE1FFF1FA217B307E407D5
:10221000F50720F0A21BB30BE40BF50B661F771F2D
:10222000881F991F1A9469F760957095809590950D
:102230009B01AC01BD01CF010895CF93DF93EC0169
:102240002B8120FF33C026FF0AC02F7B2B838E817A
:102250009F8101969F838E838A8190E029C022FF0F
:102260000FC0E881F9818081082E000C990B00973E
:1022700019F420622B831AC03196F983E8830EC0CB
:10228000EA85FB85099597FF09C02B81019611F01E
:1022900080E201C080E1822B8B8308C02E813F81C8
:1022A0002F5F3F4F3F832E83992702C08FEF9FEF11
:1022B000DF91CF910895A0E0B0E0E1E6F1E10C9468
:1022C0003814AE014B5F5F4FFA0161917191AF011C
:1022D0008091B8029091B9020E949711E2E00C94AB
:1022E0005414A0E0B0E0E7E7F1E10C943614AE013D
:1022F000495F5F4FDA016D917D91AD0106EB12E010
:10230000F80182819381DC0113962C911397286048
:1023100013962C930E949711D8011296ED91FC917F
:1023200013972381277F2383E4E00C945214ABE0BE
:10233000B0E0EDE9F1E10C9428146C017B018A0115
:10234000FC0117821682838181FFCCC1CE010196E8
:102350003C01F6019381F70193FD859193FF8191F3
:102360007F01882309F4BAC1853239F493FD859140
:1023700093FF81917F01853229F4B60190E00E949C
:102380008E13E7CF912C212C312CFFE1F315D8F0DF
:102390008B3279F038F4803279F08332A1F4232D36
:1023A00020611DC08D3261F0803369F4232D2160DE
:1023B00016C0832D8260382EE32DE4603E2E2AC0A5
:1023C000F32DF8601DC037FC2DC020ED280F2A30FA
:1023D00040F08E32B9F436FC81C1232D2064322EB8
:1023E00019C036FE06C08AE0989E200D1124922E58
:1023F00011C0EAE02E9E200D1124222EF32DF06252
:102400003F2E08C08C3621F4832D8068382E02C000
:10241000883641F4F70193FD859193FF81917F0107
:102420008111B3CF982F9F7D9554933028F40C5F82
:102430001F4F9FE399830DC0833631F0833771F0CE
:10244000833509F059C021C0F801808189830E5F6E
:102450001F4F88248394912C530113C02801F2E06C
:102460004F0E511CF801A080B18036FE03C0692DCB
:1024700070E002C06FEF7FEFC5010E9483134C0133
:102480008201F32DFF773F2E16C0280122E0420E75
:10249000511CF801A080B18036FE03C0692D70E0A8
:1024A00002C06FEF7FEFC5010E9478134C01F32D3E
:1024B000F0683F2E820133FC1BC0822D90E088160D
:1024C0009906B0F4B60180E290E00E948E132A943F
:1024D000F4CFF50137FC859137FE81915F01B6019C
:1024E00090E00E948E1321102A9421E0821A910814
:1024F0008114910471F7E8C0843611F0893641F5F2
:10250000F80137FE07C060817181828193810C5F81
:102510001F4F08C060817181072E000C880B990B3A
:102520000E5F1F4FF32DFF763F2E97FF09C090954A
:102530008095709561957F4F8F4F9F4FF0683F2E2C
:102540002AE030E0A3010E94CA13882E861845C0F5
:10255000853731F4232D2F7EB22E2AE030E025C0BE
:10256000932D997FB92E8F36C1F018F4883579F004
:10257000B5C0803719F0883721F0B0C0E92FE0618D
:10258000BE2EB4FE0DC0FB2DF460BF2E09C034FE7C
:102590000AC0292F2660B22E06C028E030E005C010
:1025A00020E130E002C020E132E0F801B7FE07C0D0
:1025B00060817181828193810C5F1F4F06C06081B1
:1025C000718180E090E00E5F1F4FA3010E94CA134B
:1025D000882E8618FB2DFF773F2E36FE0DC0232D4B
:1025E0002E7FA22E891458F434FE0BC032FC09C091
:1025F000832D8E7EA82E05C0B82CA32C03C0B82C2A
:1026000001C0B92CA4FE0FC0FE01E80DF11D8081B0
:10261000803321F49A2D997EA92E09C0A2FE06C00E
:10262000B394B39404C08A2D867809F0B394A3FCC4
:1026300011C0A0FE06C0B21488F4280C922C9B187E
:102640000EC0B21460F4B60180E290E00E948E13D6
:10265000B394F7CFB21418F42B1802C0982C212C85
:10266000A4FE10C0B60180E390E00E948E13A2FE8B
:1026700017C0A1FC03C088E790E002C088E590E0A5
:10268000B6010CC08A2D867859F0A1FE02C08BE2FB
:1026900001C080E2A7FC8DE2B60190E00E948E139B
:1026A000891438F4B60180E390E00E948E139A9466
:1026B000F7CF8A94F301E80DF11D8081B60190E017
:1026C0000E948E138110F5CF222009F442CEB6016C
:1026D00080E290E00E948E132A94F6CFF601868164
:1026E000978102C08FEF9FEF2B96E2E10C94441488
:1026F000FC010590615070400110D8F780959095CD
:102700008E0F9F1F0895FC016150704001900110D1
:10271000D8F7809590958E0F9F1F08950F931F9364
:10272000CF93DF93FB01238121FD03C08FEF9FEF48
:102730002CC022FF16C04681578124813581421763
:10274000530744F4A081B1819D012F5F3F4F318336
:1027500020838C93268137812F5F3F4F37832683D9
:1027600014C08B01EC01FB010084F185E02D09957B
:10277000892BE1F6D80116968D919C9117970196B9
:1027800017969C938E931697CE01DF91CF911F9150
:102790000F910895FA01AA27283051F1203181F1D3
:1027A000E8946F936E7F6E5F7F4F8F4F9F4FAF4F59
:1027B000B1E03ED0B4E03CD0670F781F891F9A1F6C
:1027C000A11D680F791F8A1F911DA11D6A0F711D20
:1027D000811D911DA11D20D009F468943F912AE02C
:1027E000269F11243019305D3193DEF6CF01089514
:1027F000462F4770405D4193B3E00FD0C9F7F6CF45
:10280000462F4F70405D4A3318F0495D31FD40520C
:10281000419302D0A9F7EACFB4E0A69597958795A2
:1028200077956795BA95C9F7009761057105089581
:102830009B01AC010A2E069457954795379527952D
:10284000BA95C9F7620F731F841F951FA01D0895C5
:102850002F923F924F925F926F927F928F929F92B0
:10286000AF92BF92CF92DF92EF92FF920F931F939E
:10287000CF93DF93CDB7DEB7CA1BDB0B0FB6F8944F
:10288000DEBF0FBECDBF09942A88398848885F848F
:102890006E847D848C849B84AA84B984C884DF8000
:1028A000EE80FD800C811B81AA81B981CE0FD11DE4
:1028B0000FB6F894DEBF0FBECDBFED010895F894BA
:0228C000FFCF48
:1028C2000FDF0F04000F0000000300000000EB0DFB
:1028D200230E0000F8789CF19C1DF6E698C118C3FF
:1028E20098C118C31C0EC7E170703838C7C3070FF0
:1028F2000F0F0F0F46524F47474552204259204D66
:10290200494E4A4145204C4545203435333633380B
:1029120030390053636F726500253364003F065BF4
:082922004F666D7D077F6F0019
:00000001FF
